:20000000040509050E070C01000B0D01010C080000000C01010C09000806080E050C0C0015
:2000200002000B0905000C0100000A0E000E0C010E050D010507060F00010D00050C0900FB
:2000400000000401030C0D0000000C090500080100000C0100000D0108000D0100020F0119
:20006000090C07010B0E0D0904040F020D0F0E01080C0900040C0101080F0D09020006018B
:200080000201060106090D03050008010C0F0E010E090D0004030E010E0D090800040E0186
:2000A0000E0D0F0804040F010E010D000C030E01030D080004000E0103050C00030D080065
:2000C00008030E0103050C00020400000F0F020E0F0D0701070008010D0F0D090F0D07092C
:2000E0000E000E010A0C0F01030D0709030E0F01000207010600070100000C010C0308023E
:200100000000000000000000000000000000000000000000000000000000000000000000DF
:200120000000000000000000000000000000000000000000000000000000000000000000BF
:2001400000000000000000000000000000000000000000000000000000000000000000009F
:2001600000000000000000000000000000000000000000000000000000000000000000007F
:2001800000000000000000000000000000000000000000000000000000000000000000005F
:2001A00000000000000000000000000000000000000000000000000000000000000000003F
:2001C00000000000000000000000000000000000000000000000000000000000000000001F
:2001E0000000000000000000000000000000000000000000000000000000000000000000FF
:00000001FF
