:200000000C0409050E070C01000B0D01010C080000000C01010C09000102020E050C0C001F
:200020000C020B0903000C0100000A0E000E0C0100030D0008000C01090C090002000D0108
:20004000090C07090E0F0C09090C07010C000D09010F090200020C010C000C0107010E01B0
:2000600004000D0100030D0008000C01090C090002000901090C07090E0F0C09090C0701AB
:200080000D000D09010F09000000020E02000C0102040F00030C09050E0F0D01030C09048C
:2000A00000010D01080C0D00090C07090E0F0C09090C070102000D0904000D0104070C015A
:2000C00002000C0106000701000B0D01010C080000000D010F0C0D010E050D010507060F5C
:2000E00000000C0100000C0100000C0100000C0100000C0100000C0100000C010007030695
:200100000000000000000000000000000000000000000000000000000000000000000000DF
:200120000000000000000000000000000000000000000000000000000000000000000000BF
:2001400000000000000000000000000000000000000000000000000000000000000000009F
:2001600000000000000000000000000000000000000000000000000000000000000000007F
:2001800000000000000000000000000000000000000000000000000000000000000000005F
:2001A00000000000000000000000000000000000000000000000000000000000000000003F
:2001C00000000000000000000000000000000000000000000000000000000000000000001F
:2001E0000000000000000000000000000000000000000000000000000000000000000000FF
:00000001FF
