:200000000005080502020C01000B0D01010C080000000C01010C09000D0C000E050C0C0028
:2000200000030A0903000C0100000A0E000E0C0102000D00020C0D01080C0D00030C080004
:2000400004000D0105010D01020408050A050C01000B0D01010C080000000C01010C0900FA
:20006000010C000E050C0C000E010A0900030D0008000C01030C080008030D01090C0900B3
:2000800000010D01010F0900000004000A010C01000701000E000C010E000C01010F0900C5
:2000A0000000020E02000C0102040F00030C09050E0F0D0102080D04080C0D00090C070963
:2000C0000E0F0C09090C070102000D0904000D0104070C0102000C01090C09050E0F0D0132
:2000E000060007010E050D010507060F000B0D01010C080000000D01070C0C010B080E082B
:200100000000000000000000000000000000000000000000000000000000000000000000DF
:200120000000000000000000000000000000000000000000000000000000000000000000BF
:2001400000000000000000000000000000000000000000000000000000000000000000009F
:2001600000000000000000000000000000000000000000000000000000000000000000007F
:2001800000000000000000000000000000000000000000000000000000000000000000005F
:2001A00000000000000000000000000000000000000000000000000000000000000000003F
:2001C00000000000000000000000000000000000000000000000000000000000000000001F
:2001E0000000000000000000000000000000000000000000000000000000000000000000FF
:00000001FF
