:200000000C0408050E070C01000B0D01010C080000000C01010C09000100040E050C0C0020
:2000200004030A0903000C0100000A0E000E0C0102000D00020C0D01080C0D00010F0900FE
:200040000A000D0104000C01030C090404000C01080C0D00090C07090E0F0C0902000709C0
:20006000030C090408000C01080C0D00090C07090E0F0C090204000006000C01030C0805A2
:200080000E030D0102080601000B0D0004000C0102000709030C090406000C01080C0D00A5
:2000A000090C07090E0F0C090003070104000C01010F09000000020E06000C01020007097F
:2000C000030C09040C000C01080C0D00090C07090E0F0C09090C070102000D0904000D012C
:2000E00004070C0102000C01090C09050E0F0D01060007010E050D010507060F01060E0E18
:200100000000000000000000000000000000000000000000000000000000000000000000DF
:200120000000000000000000000000000000000000000000000000000000000000000000BF
:2001400000000000000000000000000000000000000000000000000000000000000000009F
:2001600000000000000000000000000000000000000000000000000000000000000000007F
:2001800000000000000000000000000000000000000000000000000000000000000000005F
:2001A00000000000000000000000000000000000000000000000000000000000000000003F
:2001C00000000000000000000000000000000000000000000000000000000000000000001F
:2001E0000000000000000000000000000000000000000000000000000000000000000000FF
:00000001FF
