:200000000D0401050E070C01000B0D01010C080000000C01010C09000102080E050C0C0020
:2000200004030A0903000C0100000A0E000E0C0104000D0102000D00030C0904000C0E010B
:20004000000F0D000A010C01010F090200000C000A000C010D0F0E01090C090806000D01C9
:20006000010F07090A000C010C0F0D09090C090808000D01010F07090A000C010C0F0D0974
:20008000010F09000F0F030E06000C01090C090808010D01010F07090A000C010C0F0D0960
:2000A000000701000E000C010E000C01010F09000000020E02000C0102040F00030C090598
:2000C0000E0F0D01030C090C08030D01080C0D00090C07090E0F0C09090C070104000C090A
:2000E000010F090300000E010C000C01000D0E01060007010E050D010507060F0F06080F24
:200100000000000000000000000000000000000000000000000000000000000000000000DF
:200120000000000000000000000000000000000000000000000000000000000000000000BF
:2001400000000000000000000000000000000000000000000000000000000000000000009F
:2001600000000000000000000000000000000000000000000000000000000000000000007F
:2001800000000000000000000000000000000000000000000000000000000000000000005F
:2001A00000000000000000000000000000000000000000000000000000000000000000003F
:2001C00000000000000000000000000000000000000000000000000000000000000000001F
:2001E0000000000000000000000000000000000000000000000000000000000000000000FF
:00000001FF
