:20000000020509050E070C01000B0D01010C080000000C01010C09000002080E050C0C0023
:2000200006010A0903000C0100000A0E000E0C0102000D00000F0D0008000C01000701001B
:200040000E000C010E000C01010F09000000020E02000C01090C090008030D01090C0709D6
:200060000E0F0C09090C070101000D090600070104000D0104070C0102000C010E050D01B2
:200080000507060F00000C0100000C0100000C0100000C0100000C0100000C0100000C01E4
:2000A00000000C0100000C0100000C0100000C0100000C0100000C0100000C0100000C01D8
:2000C00000000C0100000C0100000C0100000C0100000C0100000C0100000C0100000C01B8
:2000E00000000C0100000C0100000C0100000C0100000C0100000C0100000C010C03010B8A
:200100000000000000000000000000000000000000000000000000000000000000000000DF
:200120000000000000000000000000000000000000000000000000000000000000000000BF
:2001400000000000000000000000000000000000000000000000000000000000000000009F
:2001600000000000000000000000000000000000000000000000000000000000000000007F
:2001800000000000000000000000000000000000000000000000000000000000000000005F
:2001A00000000000000000000000000000000000000000000000000000000000000000003F
:2001C00000000000000000000000000000000000000000000000000000000000000000001F
:2001E0000000000000000000000000000000000000000000000000000000000000000000FF
:00000001FF
