:20000000080508050E070C01000B0D01010C080000000C01010C09000807020E050C0C0017
:200020000E020A0903000C0100000A0E000E0C01000A0D01030C090007000F01010C080AF4
:2000400000000D0103000E01030C090007010F00090C090A00020C090D0F0F01080C0D08BD
:2000600004040F080E0F0C09010F090800000D0102000C0102000109090F0909090C09029B
:2000800000020C090D0F0F010B000C09020C0D01080C0D0802000701090C07090E0F0C0957
:2000A0000205010802000C01030C07090A0F0C090600070104000D0104070C0102000C018D
:2000C000010C080000000D01000B0D01010D0D01010C080000000D010F0C0C010E050D015C
:2000E0000507060F00000C0100000C0100000C0100000C0100000C0100000C010B07060970
:200100000000000000000000000000000000000000000000000000000000000000000000DF
:200120000000000000000000000000000000000000000000000000000000000000000000BF
:2001400000000000000000000000000000000000000000000000000000000000000000009F
:2001600000000000000000000000000000000000000000000000000000000000000000007F
:2001800000000000000000000000000000000000000000000000000000000000000000005F
:2001A00000000000000000000000000000000000000000000000000000000000000000003F
:2001C00000000000000000000000000000000000000000000000000000000000000000001F
:2001E0000000000000000000000000000000000000000000000000000000000000000000FF
:00000001FF
