:200000000A04090506010C01000B0D01010C080000000C01010C09000500020E050C0C002D
:200020000E020B0907010C0100000A0E000E0C010405080506060C01000B0D01010C0800F7
:2000400000000C01010C0900020E020E050C0C0002020B0902000D00020C0D01080C0D00DC
:20006000090C090402000501090C07010E0F0C09010F07010F0F020E080C0D0009000C018A
:2000800002000D00000A0D0102000101020001010200010102000101000F0D0006000C01FA
:2000A000010F09000000020E02000C01030C090404000D01080C0D00090C07090E0F0C0962
:2000C000090C070102000D0904000D0104070C0102000C01090C09050E0F0D010600070156
:2000E0000E050D010507060F000B0D01010C080002000C01070C0D0100000C01090A040B31
:200100000000000000000000000000000000000000000000000000000000000000000000DF
:200120000000000000000000000000000000000000000000000000000000000000000000BF
:2001400000000000000000000000000000000000000000000000000000000000000000009F
:2001600000000000000000000000000000000000000000000000000000000000000000007F
:2001800000000000000000000000000000000000000000000000000000000000000000005F
:2001A00000000000000000000000000000000000000000000000000000000000000000003F
:2001C00000000000000000000000000000000000000000000000000000000000000000001F
:2001E0000000000000000000000000000000000000000000000000000000000000000000FF
:00000001FF
