:20000000080509050E070C01000B0D01010C080000000C01010C09000807020E050C0C0016
:2000200004030A0903000C0100000A0E000E0C010204070104000D01050C080001000D011B
:2000400002000601050C090000080C01030C09050E0F030E00000F0104080101010C0C04E2
:200060000200010C0E010C01010C0C05070C0C0003010D010B010C010F000C010D000D01B6
:2000800005010D0109010C0107000D0103040C0703040C070501080B07010D0B07000B00A1
:2000A0000F0E0A0106000701000B0D0002000C0103000D0101030D0802000C01040C0C018D
:2000C000090C0902000A0C090D0F0F01090D0C09070D06010E040C01030C090504000C0122
:2000E000080C0D00070F0C0101070D0802000C01030F0D010E050D010507060F0006030421
:200100000000000000000000000000000000000000000000000000000000000000000000DF
:200120000000000000000000000000000000000000000000000000000000000000000000BF
:2001400000000000000000000000000000000000000000000000000000000000000000009F
:2001600000000000000000000000000000000000000000000000000000000000000000007F
:2001800000000000000000000000000000000000000000000000000000000000000000005F
:2001A00000000000000000000000000000000000000000000000000000000000000000003F
:2001C00000000000000000000000000000000000000000000000000000000000000000001F
:2001E0000000000000000000000000000000000000000000000000000000000000000000FF
:00000001FF
